:020000041000EA
:1004000000080108910400100D0000004D3D02108D
:1004100000000000000000000000000000000000DC
:10042000000000000000000000000000353D021048
:100430000000000000000000F93C0210FD04001064
:10044000FD040010A13D0210FD040010FD04001089
:10045000FD040010FD040010FD040010913B02108B
:10046000FD040010FD040010FD040010FD04001048
:10047000FD040010FD040010FD040010FD04001038
:100480007047EFF3108072B6704780F310887047A2
:10049000FFF7F6FF72B6144C144DAC4209DA21682E
:1004A0006268A368043B02DBC858D050FAE70C34FA
:1004B000F3E70F4B0F4CA34208DA19685A68002083
:1004C000043A01DB8850FBE70833F4E723F04AFDE8
:1004D000EFF314800221084380F31488064880F368
:1004E000098820F03DFDFEE71C0500107C0500108A
:1004F0007C050010D405001000100108FEE7FEE79F
:1005000000B504207146084202D0EFF3098001E0F3
:0C051000EFF30880043022F003FDFEE74A
:10051C00405B021000D2010804010000005B0210D5
:10052C000010000800000000005B02100010010821
:10053C0000000000005B0210802801080000000091
:10054C00005B02100030010840000000405B02100C
:10055C0080C0010800000000405B021000C50108CB
:10056C0000000000445C021000F002089804000037
:10057C0004D30108C414000000100108201200006C
:10058C00802201080006000080280108800200007B
:10059C00002B01080005000040300108007000002D
:1005AC0080A001080020000080C00108200000008D
:1005BC0000C101080004000000C501086002000031
:0805CC0080C70108800A00004D
:0805D40000000000000000001F
:1005DC00000000000000000000000000000000000F
:1005EC0000000000000000000000000000000000FF
:1006000010B5034B0A000100186800F055F810BD42
:1006100098D20108084B10B50400002B02D000212D
:1006200000E000BF054B1868836A002B00D0984794
:10063000200024F04FFBC0460000000044170010CB
:1006400010B5034B0100186800F044F810BDC04617
:1006500098D2010830B500240139A24201D100200E
:1006600005E0035D01340D5DAB42F6D0581B30BD93
:10067000002310B59A4200D110BDCC5CC4540133A4
:10068000F8E710B5884202D98B18984203D30023AB
:1006900007E08B5C8354013AFBD210BDCC5CC454A0
:1006A00001339A42FAD1F8E703008218934200D14D
:1006B000704719700133F9E74A4370B5110015000E
:1006C00000F052F8041E03D02A000021FFF7ECFFCF
:1006D000200070BD70B50500002910D00C1F2368E4
:1006E000002B00DAE418280000F06EFC1D4A1368A5
:1006F000002B05D163601460280000F06DFC70BD14
:10070000A34208D9216860188342F3D118685B6856
:1007100041182160EEE71A005B68002B01D0A3426C
:10072000F9D911685018A0420BD120680918501847
:1007300011608342E0D118685B6841181160536012
:10074000DAE7A04202D90C232B60D5E721686018B4
:10075000834203D118685B6841182160636054606C
:10076000CAE7C046A8E70108F8B50323CD1C9D439E
:10077000083506000C2D1FD20C25A9421ED83000CA
:1007800000F022FC25490A681400002C1AD1244FDD
:100790003B68002B04D12100300000F0D9F838600C
:1007A0002900300000F0D4F8431C2BD10C2330007A
:1007B000336000F011FC03E0002DDEDA0C2333601F
:1007C0000020F8BD23685B1B19D40B2B03D92360D1
:1007D000E418256003E06368A2420ED10B6030008C
:1007E00000F0FAFB200007220B30231D9043C21AB1
:1007F0009842E6D01B1AA350E3E75360EFE72200CC
:100800006468C2E70323C41C9C43A042E1D0211AC0
:10081000300000F09DF8431CDBD1C7E7A8E70108D2
:10082000ACE701080FB40B4B13B51C68002C05D0C6
:10083000A369002B02D1200000F0B6FA05AB20001E
:10084000049AA168019300F0F7FB16BC08BC04B041
:100850001847C04698D2010870B505000E00002860
:1008600004D08369002B01D100F09EFAAB69AC681B
:10087000002B02D1280000F097FA2D4B9C4222D188
:100880006C68636EDB0705D4A3899B0502D4A06D59
:1008900000F02BFBA3891B0702D52369002B29D16C
:1008A0002100280000F0DAF8002823D001256D424D
:1008B000636EDB0705D4A3899B0502D4A06D00F00D
:1008C00015FB280070BD1B4B9C4201D1AC68D8E7DA
:1008D000194B9C42D5D1EC68D3E70136A360002BBD
:1008E00004DAA2699A4216DC0A2914D023685A1C39
:1008F00022601970A3683178013B0029EDD1A36013
:10090000002B0FDA280022000A3100F051F80A25E6
:10091000431CCDD1CAE72200280000F049F8431C4F
:10092000E8D1C3E70A2523685A1C22601D70BFE77F
:1009300068170010881700104817001010B5034BF7
:1009400001001868FFF788FF10BDC04698D2010863
:10095000002370B5064D040008002B6024F0ACF9AC
:10096000431C03D12B68002B00D0236070BDC04610
:10097000C4E701080023C25C0133002AFBD1581EE2
:1009800070470A7830B5002A0CD130BD9A4208D1A0
:100990000123CC5C002CF8D0C55CA54201D1013309
:1009A000F7E701300378002BF0D11800EDE70000E5
:1009B000F8B505000E001400002804D08369002B50
:1009C00001D100F0F1F9224B9C422ED16C68A36951
:1009D000A360A3891B0732D52369002B2FD023687E
:1009E0002269F7B2981A6369F6B2834205DC2100E6
:1009F000280000F037F9002827D1A3680130013B17
:100A0000A36023685A1C22601F706369834204D06C
:100A1000A389DB0707D50A2E05D12100280000F0A5
:100A200021F9002811D13000F8BD0A4B9C4201D1B8
:100A3000AC68CCE7084B9C42C9D1EC68C7E7210001
:100A4000280000F00BF80028C9D001267642EAE71A
:100A5000681700108817001048170010374B70B542
:100A60001D6806000C00002D05D0AB69002B02D1DB
:100A7000280000F099F9324B9C420FD16C680C238E
:100A8000E25E93B211072DD4D90611D409230120B7
:100A9000336037331343A381404270BD294B9C42DE
:100AA00001D1AC68EBE7284B9C42E8D1EC68E6E763
:100AB0005B0713D5616B002908D0230044339942AA
:100AC00002D03000FFF706FE002363632422A389CF
:100AD0009343A38100236360236923600823A289D1
:100AE0001343A3812369002B0BD1A0218022A3896A
:100AF000890092000B40934203D02100300000F0A7
:100B00001FFA0C22A35E01201A0099B20240034290
:100B10000FD00022A26062695242A26100202269C5
:100B20008242BAD10A06B8D540221343A3810138C4
:100B3000B3E7880700D46269A260EFE798D20108A2
:100B4000681700108817001048170010F7B58B8938
:100B500005000C001A075FD44A68002A04DC0A6CFE
:100B6000002A01DC0020FEBDE76A002FFAD0002237
:100B700080212E682A601A0049010A400B4234D0B5
:100B8000606DA3895B0706D56368C01A636B002B91
:100B900001D0236CC01A0200216A00232800E76AF2
:100BA000B847A189431C06D12B681D2B31D82C4A8C
:100BB000DA40D3072DD50023636023692360CB047B
:100BC00005D5431C02D12B68002B00D16065616BF9
:100BD0002E600029C6D023004433994202D0280059
:100BE000FFF778FD00206063BDE701232800216A3C
:100BF000B847431CC5D12B68002BC2D01D2B01D098
:100C0000162B01D12E60ADE74023A2891343A381A7
:100C1000A9E740230B43FAE70F69002FA2D00A6827
:100C20000F60D21B019200229B0700D14A69A2608B
:100C3000019B002B00DC95E73A002800019B216A0C
:100C4000A66AB047002806DC40230120A289404262
:100C50001343A38187E7019B3F181B1A0193E7E722
:100C6000010040200B6970B505000C00002B02D17B
:100C70000025280070BD002804D08369002B01D115
:100C800000F092F8144B9C421BD16C680C22A35EBE
:100C9000002BEDD0626ED20704D49B0502D4A06D68
:100CA00000F023F928002100FFF750FF636E0500D4
:100CB000DB07DED4A3899B05DBD4A06D00F016F919
:100CC000D7E7064B9C4201D1AC68DFE7044B9C425E
:100CD000DCD1EC68DAE7C04668170010881700100E
:100CE00048170010002310B50400036043608360C0
:100CF000818143661900C2810361436183610822D7
:100D00005C30FFF7D1FC054B6362054B2462A362A4
:100D1000044BE362044B236310BDC046B1150010C1
:100D2000D9150010111600103D16001010B502491B
:100D300000F0BAF810BDC046650C001070B568250B
:100D40004A1E55430E0029007431FFF70DFD041EA5
:100D500008D000212A00016046600C30A060683293
:100D6000FFF7A2FC200070BD10B5024800F0BDF8EE
:100D700010BDC046C0E7010810B5024800F0B6F843
:100D800010BDC046C0E7010810B5024800F0ADF83C
:100D900010BDC046BBE7010810B5024800F0A6F838
:100DA00010BDC046BBE7010813B50400FFF7ECFF18
:100DB000A369002B02D0FFF7EFFF13BDA364E36428
:100DC0002365134B134A1B68A2620193A34201D10E
:100DD0000123A361200000F01FF86060200000F0F4
:100DE0001BF8A060200000F017F800220421E0604A
:100DF0006068FFF777FF01220921A068FFF772FF03
:100E000002221221E068FFF76DFF0123A361D2E700
:100E1000441700102D0D0010F8B50700FFF7A4FFD0
:100E20001F4B1E68B369002B02D13000FFF7BCFFD7
:100E30004836B4687368013B04D53368002B22D070
:100E40003668F6E70C22A55E002D1AD12000154B5E
:100E50005830E360656600F047F8FFF78DFF20002B
:100E6000082229002560A560656025616561A5618E
:100E70005C30FFF719FC6563A563A564E564200099
:100E8000F8BD6834D7E704213800FFF757FF041E88
:100E90003060D5D1FFF770FF0C233B60EFE7C04611
:100EA000441700100100FFFFF7B5040006000027FB
:100EB000019148346368A5680093009B013B00934F
:100EC00004D52468002CF5D13800FEBDAB89012B78
:100ED00008D90E22AB5E013304D029003000019BFB
:100EE000984707436835E8E7704770477047000048
:100EF00070B50E001D000E23C95E140096B00029C7
:100F000007DA00232B60B3891B0611D48023DB0092
:100F10000FE06A4600F0BEFB0028F2DBF0230199E7
:100F20001B021940054BC9184B4259412960EDE796
:100F300040230020236016B070BDC04600E0FFFFD4
:100F4000F7B502268B8905000C00334206D023003A
:100F500047332360236101236361F7BD6A4601AB18
:100F6000FFF7C6FF009907002800FFF7FDFB0028E8
:100F700008D10C22A35E9A05EFD4032293431E43AB
:100F8000A681E4E70F4BAB628023A2892060134364
:100F9000A381009B20616361019B002B0DD0280081
:100FA0000E23E15E00F088FB002806D00322A3890F
:100FB00093431A0001231343A381A0890743A78108
:100FC000CBE7C0462D0D001010B50248FFF78DFF8E
:100FD00010BDC046BCE7010810B50248FFF786FF08
:100FE00010BDC046BCE70108936810B5013B936093
:100FF000002B04DA9469A34207DB0A2905D01368A1
:10100000581C10601970080010BDFFF7D1FC0100DA
:10101000F9E7F8B506000F001400D518AC4201D16D
:10102000002007E021783A003000FFF7DDFF0134AF
:10103000431CF3D1F8BD0000F0B5A1B006000C00D0
:101040001F000392002804D08369002B01D1FFF711
:10105000ABFE8E4B9C421CD17468636EDB0705D4DB
:10106000A3899B0502D4A06DFFF73FFFA3891B074F
:1010700002D52369002B1DD121003000FFF7EEFCC3
:10108000002817D0636EDB070DD50120404221B048
:10109000F0BD7F4B9C4201D1B468DEE77D4B9C42A2
:1010A000DBD1F468D9E7A3899B05EED4A06DFFF7E7
:1010B0001DFFEAE7002308AD6B6120336B76103328
:1010C000AB760797039F3B78002B01D0252B4ED1A1
:1010D000039BFB1A0593039B9F420DD0059B2100A8
:1010E0003000039AFFF795FF431C00D1B5E06A6911
:1010F000059B944663446B613B78002B00D1ACE0C8
:1011000001227B1C0393002352426A6004A95432DB
:1011100052182B60EB60AB601370AB65039B05222C
:1011200019785D4800F0EEFA039B5F1C002820D17F
:101130002A68D30604D5532304A95B18202119700B
:10114000130704D5532304A95B182B211970039BA3
:101150001B782A2B16D00021EB68039F3A78781C65
:10116000303A8446092A4FD9002911D117E00137B6
:10117000A9E7494B2A68C01A0123834013432B6017
:101180000397CBE7079B191D1B680791002B01DB19
:101190000B9304E05B42EB60022313432B603B782C
:1011A0002E2B0AD17B782A2B37D1079B02371A1DA9
:1011B0001B680792002B2DDB0993032239783748EF
:1011C00000F0A0FA002807D0344B2A68C01A402348
:1011D0008340134301372B6039787B1C062230484B
:1011E0000393297600F08EFA002845D02D4B002B72
:1011F00027D10722079B07339343083307936B6973
:10120000049A9B186B615DE70A214B4367469B1864
:101210000939A3E701235B42CEE700231A00013717
:101220006B603978781C30398446092903D9002B42
:10123000C3D00992C1E70A235A4367465218093BB3
:10124000EFE707AB0093220029003000164B00E0C7
:1012500000BF0490049B0133D1D1636EDB0705D43A
:10126000A3899B0502D4A06DFFF740FEA3895B060E
:1012700000D50AE70D980AE707AB00932200290082
:101280003000094B00F082F8E3E7C0466817001011
:101290008817001048170010A8170010AE1700108C
:1012A000B21700100000000013100010F7B5150071
:1012B00001938A680B690C000090934200DA1300D6
:1012C00022002B6043321278002A01D001332B60B8
:1012D00023689B0602D52B6802332B602268062305
:1012E00017001F401A4227D0230043331B785A1E91
:1012F00093412268920630D4220001990098089EFA
:101300004332B047431C25D0062320682A68E16891
:1013100000250340042B03D18D1AEB43DB171D403E
:10132000A3682269934201DD9B1AED180027BD4294
:1013300020D1002010E00137E3682A689B1ABB42E5
:10134000D2DD2200012301990098089E1932B0478E
:10135000431CF0D101204042FEBD3020E118433152
:10136000087021005A1C45310978A2184332023313
:101370001170C1E72200012301990098089E1A32DA
:10138000B047431CE6D00137D1E70000F0B58BB081
:1013900006920A0043320793059004920A7E0C00DD
:1013A000109B782A06D8622A08D8002A00D1C0E00B
:1013B000582A52D026004236327022E0100063389C
:1013C0001528F7D801F0CEFC16001F00F6FFF6FF37
:1013D000F6FFF6FF1F00F6FFF6FFF6FFF6FFA80088
:1013E00036009A00F6FFF6FFB900F6FF3600F6FF6A
:1013F000F6FF9E0026001A684236111D1960136818
:1014000033700123A7E0086819680A1D05060BD58B
:101410000D681A60002D03DA2D23049A6D421370B3
:10142000614B0A27039332E00D681A604106F1D53B
:101430002DB2EFE70D681968081D18602E0601D55A
:101440000D6803E06D06FBD50D68ADB2564B0A275B
:1014500003936F2A17D1082715E045310A70524AC5
:1014600003921A68216820CA1A60080650D5CB0773
:1014700002D52023194321601027002D03D12023FA
:1014800022689A4322602300002243331A70636863
:10149000A360002B03DB0422216891432160002D0F
:1014A00002D1049E002B0CD0049E2800390001F0CC
:1014B000F3FC039B013E5B5C33702B0005009F42F5
:1014C000F3D9082F09D12368DB0706D563682269A1
:1014D000934202DC3023013E3370049B9B1B23614B
:1014E000079B210000930598069B09AAFFF7DEFEE3
:1014F000431C35D1012040420BB0F0BD20220968C9
:101500000A4322602200782145321170274AA7E75A
:101510004806ACD5ADB2AAE71A680D68101D496936
:10152000186013682E0601D5196002E06D06FBD520
:1015300019800023049E2361D2E71A68111D1960E7
:10154000166800213000626800F0DCF8002801D045
:10155000801B6060636823610023049A1370BFE7F7
:101560002369320006990598079DA847431CC1D0FE
:1015700023689B0715D4099BE0689842BCDA1800E1
:10158000BAE72200012306990598079E1932B04751
:10159000431CAFD00135E368099A9B1AAB42F0DCDB
:1015A000E9E70025F7E7C046B9170010CA17001091
:1015B00070B50C000E25495F00F0B0F8002803DB81
:1015C000636D1B18636570BDA389024A1340A38134
:1015D000F9E7C046FFEFFFFFF8B51F008B89050054
:1015E0000C001600DB0505D50E23C95E0022022380
:1015F00000F074F8A389054A28001340A381320043
:101600000E23E15E3B0000F01FF8F8BDFFEFFFFF87
:1016100070B50C000E25495F00F060F8A389421CEC
:1016200003D1054A1340A38170BD802252011343A8
:10163000A3816065F8E7C046FFEFFFFF10B50E23FA
:10164000C95E00F015F810BD70B504000800110067
:101650001A000023054D2B6020F042F9431C03D1F2
:101660002B68002B00D0236070BDC046C4E7010882
:10167000002370B5064D040008002B6023F0F4FA37
:10168000431C03D12B68002B00D0236070BDC046E3
:10169000C4E70108002370B5064D040008001100DE
:1016A0002B6023F0E9FA431C03D12B68002B00D0F8
:1016B000236070BDC4E70108002370B5064D040027
:1016C00008002B6023F0E0FA431C03D12B68002BA9
:1016D00000D0236070BDC046C4E7010870B50400A7
:1016E000080011001A000023054D2B6023F0D4FAE6
:1016F000431C03D12B68002B00D0236070BDC04673
:10170000C4E70108C9B28218904201D10020704795
:1017100003788B42FBD00130F6E7000070B504007F
:10172000080011001A000023054D2B6023F0BCFABD
:10173000431C03D12B68002B00D0236070BDC04632
:10174000C4E701089CD2010800000000000000006E
:101750000000000000000000000000000000000089
:101760000000000000000000000000000000000079
:101770000000000000000000000000000000000069
:101780000000000000000000000000000000000059
:101790000000000000000000000000000000000049
:1017A0000000000000000000232D302B2000686C9A
:1017B0004C00656667454647003031323334353674
:1017C00037383941424344454600303132333435AD
:1017D00036373839616263646566000005DF70473B
:1017E0000020FBE706DF704730B58BB00290039115
:1017F00002A90491069308210EAB089304230591D6
:10180000702007390792099302F0B0FB041E10DD27
:10181000002300210193009304AA033302F0A8FBE4
:101820000500200002F0B0FB032D05D028000BB00E
:1018300030BD84256D42F9E78A3DF7E770B58CB07D
:10184000039204AA08920822099203AA0A92042287
:10185000119E0B92109A0490059106920793002E08
:101860001CD00121712002F081FB041E13DD012335
:10187000019306AB00930021022308AA02F078FB33
:101880000500200002F080FB032D07D0079B33608A
:1018900028000CB070BD84256D42F9E787256D42A4
:1018A000F6E7C04630B589B002AB04930823029036
:1018B000039105930121043372200692079302F0ED
:1018C00055FB041E11DD0123019306AB009300219B
:1018D000012304AA02F04CFB0500200002F054FB97
:1018E000032D05D0280009B030BD84256D42F9E7ED
:1018F0008A3DF7E730B587B002AB04930823029026
:10190000039101217320059302F030FB041E0EDDCC
:10191000002300210193009304AA013302F028FB65
:101920000500200002F030FB280007B030BD842500
:101930006D42F9E70020704730B595B00C002422C5
:10194000002103900BA8FEF7AFFE0AAA06922822F8
:10195000079203AA02230892042201218020049402
:101960000A930992059302F001FB041E0FDD012387
:10197000019304AB00930021022306AA02F0F8FAB7
:101980000500200002F000FB280015B030BD8425C2
:101990006D42F9E7862040427047C04630B58FB0AF
:1019A00004002422002105A8FEF77EFE032304ADD7
:1019B0000493012125338020EC800295039302F0EB
:1019C000D5FA041E0EDD002300210193009302AA24
:1019D000013302F0CDFA0500200002F0D5FA28000C
:1019E0000FB030BD84256D42F9E7C046F0B595B023
:1019F00007000E001500002124220BA81C00FEF792
:101A000053FE04230A930AAB049328230593043B53
:101A100007930121223B802002940697089609959E
:101A2000039302F0A3FA041E0FDD0123019302AB1E
:101A300000930021032304AA02F09AFA0500200073
:101A400002F0A2FA280015B0F0BD84256D42F9E736
:101A500030B58FB004002422002105A8FEF724FE33
:101A6000052304AD0493012123338020EC800295EB
:101A7000039302F07BFA041E0EDD00230021019384
:101A8000009302AA013302F073FA0500200002F06D
:101A90007BFA28000FB030BD84256D42F9E7C046BF
:101AA00030B591B00C0005002822002106A8FEF7F1
:101AB000FBFD6B46DD8306AB0293282301210393D4
:101AC0008020043B0494059302F050FA041E0FDDBD
:101AD0000123019304AB00930021012302AA02F029
:101AE00047FA0500200002F04FFA280011B030BD7F
:101AF00084256D42F9E7C046F0B5C64600B590B002
:101B0000140006000D002422002107A89846FEF7C5
:101B1000CBFD062306AF06930121223380200594D6
:101B2000FE8002970393049502F020FA041E14DD50
:101B30000123019304AB009302AA0123002102F0C8
:101B400017FA4346059A05001A60200002F01CFAB5
:101B5000280010B004BC9046F0BD84256D42F7E724
:101B6000F0B5C64600B590B0140006000D00242262
:101B7000002107A89846FEF797FD072306AF0693B6
:101B80000121213380200594FE8002970393049560
:101B900002F0ECF9041E14DD0123019304AB009361
:101BA00002AA0123002102F0E3F94346059A050049
:101BB0001A60200002F0E8F9280010B004BC90463A
:101BC000F0BD84256D42F7E7F0B593B01400060030
:101BD0000D002422002109A8FEF766FD08230893C2
:101BE00020330593043B08AF07930121223B80205B
:101BF0000294FE8004970695039302F0B7F9041E41
:101C00000FDD0123019302AB00930021022304AAFC
:101C100002F0AEF90500200002F0B6F9280013B07A
:101C2000F0BD84256D42F9E7F0B5C64600B592B027
:101C300004000E001500002124221F0009A808AB93
:101C40009846FEF731FD1D23089343462268029310
:101C5000DA602823012103938020243B0494059318
:101C60000696079502F082F9041E13DD0223019304
:101C700004AB00930021012302AA02F079F9079B2B
:101C800005003B60200002F07FF9280012B004BC80
:101C90009046F0BD84256D42F7E7C046F0B593B09D
:101CA00004000E0015000021242209A8FEF7FCFC08
:101CB0001E230893236808AFFB60282301210593A6
:101CC0008020243B0294049706960795039302F024
:101CD0004DF9041E0FDD0123019302AB0093002197
:101CE000022304AA02F044F90500200002F04CF996
:101CF000280013B0F0BD84256D42F9E7F0B591B02E
:101D000004000F0016000021242207A8FEF7CCFCD7
:101D10001B230693236806ADEB6028230121039360
:101D20008020243B0494EF8002950593AE6002F07E
:101D30001DF9041E0FDD0123019304AB0093002164
:101D4000012302AA02F014F90500200002F01CF998
:101D5000280011B0F0BD84256D42F9E7F0B591B0CF
:101D600004000F0016000021242207A8FEF79CFCA7
:101D70001C230693236806ADEB60282301210393FF
:101D80008020243B0494EF8002950593AE6002F01E
:101D9000EDF8041E0FDD0123019304AB0093002135
:101DA000012302AA02F0E4F80500200002F0ECF89A
:101DB000280011B0F0BD84256D42F9E7F0B5C646A4
:101DC00000B594B004000F0016001D0024220AABD9
:101DD00000210BA89846FEF767FC1F230A93434691
:101DE00022680293DA6028230393243B07931A9B0B
:101DF000012180200694049705960895099302F026
:101E0000B5F8041E14DD0223019306AB009302AA69
:101E10000223002102F0ACF8099A1B9B05001A600E
:101E2000200002F0B1F8280014B004BC9046F0BDC8
:101E300084256D42F7E7C04630B591B004002422F6
:101E4000002107A8FEF730FC21230693236806AD86
:101E5000EB602823012103938020243B0494029506
:101E6000059302F083F8041E0FDD0123019304ABF8
:101E700000930021012302AA02F07AF80500200055
:101E800002F082F8280011B030BD84256D42F9E7D8
:101E9000F0B5C64600B592B004000E001500002152
:101EA00024221F0009A808AB9846FEF7FDFB20235B
:101EB0000893434622680293DA60282301210393A2
:101EC0008020243B049405930696079502F04EF873
:101ED000041E13DD0223019304AB009300210123B0
:101EE00002AA02F045F8079B05003B60200002F0C3
:101EF0004BF8280012B004BC9046F0BD84256D421A
:101F0000F7E7C04670B590B004000E00242200210F
:101F100007A8FEF7C9FB0B230693236806ADEB6009
:101F20002823012103938020243B049402950593E8
:101F3000AE6002F01BF8041E0FDD0123019304AB19
:101F400000930021012302AA02F012F805002000EC
:101F500002F01AF8280010B070BD84256D42F9E730
:101F6000F0B593B004000E0015000021242209A84A
:101F7000FEF79AFB0C230893236808AFFB60282325
:101F8000012105938020243B02940497069607952F
:101F9000039301F0EBFF041E0FDD0123019302AB5D
:101FA00000930021022304AA01F0E2FF05002000B3
:101FB00001F0EAFF280013B0F0BD84256D42F9E777
:101FC000F0B5C64600B592B004000E001500002121
:101FD00024221F0009A808AB9846FEF765FB0D23D5
:101FE0000893434622680293DA6028230121039371
:101FF0008020243B049405930696079501F0B6FFD4
:10200000041E13DD0223019304AB0093002101237E
:1020100002AA01F0ADFF079B05003B60200001F024
:10202000B3FF280012B004BC9046F0BD84256D4279
:10203000F7E7C046F0B593B004000E00150000218C
:10204000242209A8FEF730FB0E230893236808AF6B
:10205000FB602823012105938020243B02940497F0
:1020600006960795039301F081FF041E0FDD0123FF
:10207000019302AB00930021022304AA01F078FF30
:102080000500200001F080FF280013B0F0BD84257A
:102090006D42F9E730B591B004002422002107A871
:1020A000FEF702FB0F230693236806ADEB6028239F
:1020B000012103938020243B04940295059301F0B1
:1020C00055FF041E0FDD0123019304AB0093002193
:1020D000012302AA01F04CFF0500200001F054FF8B
:1020E000280011B030BD84256D42F9E770B590B07D
:1020F00005000C002422002107A8FEF7D5FA1023C2
:1021000006932B6806AEF36028230393243B0296C4
:1021100004940593002C02D02368002B18D10121D0
:10212000802001F023FF041E0FDD0123019304AB87
:1021300000930021012302AA01F01AFF05002000EC
:1021400001F022FF280010B070BD84256D42F9E730
:1021500089256D42F6E7C046F0B591B004000F0046
:1021600016000021242207A8FEF79EFA13230693E7
:10217000236806ADEB602823012103938020243BD4
:102180000494EF8002950593AE6001F0EFFE041E0B
:102190000FDD0123019304AB00930021012302AA68
:1021A00001F0E6FE0500200001F0EEFE280011B06F
:1021B000F0BD84256D42F9E7F0B591B004000F0041
:1021C00016000021242207A8FEF76EFA14230693B6
:1021D000236806ADEB602823012103938020243B74
:1021E0000494EF8002950593AE6001F0BFFE041EDB
:1021F0000FDD0123019304AB00930021012302AA08
:1022000001F0B6FE0500200001F0BEFE280011B06E
:10221000F0BD84256D42F9E7F0B593B004000E00DF
:1022200015000021242209A8FEF73EFA1523089381
:10223000236808AFFB602823012105938020243BFD
:102240000294049706960795039301F08FFE041EEF
:102250000FDD0123019302AB00930021022304AAA6
:1022600001F086FE0500200001F08EFE280013B06C
:10227000F0BD84256D42F9E7F0B5C64600B592B0D1
:1022800004000E001500002124221F0009A808AB3D
:102290009846FEF709FA16230893434622680293EC
:1022A000DA602823012103938020243B04940593C2
:1022B0000696079501F05AFE041E13DD02230193D2
:1022C00004AB00930021012302AA01F051FE079BF9
:1022D00005003B60200001F057FE280012B004BC4E
:1022E0009046F0BD84256D42F7E7C046F0B593B047
:1022F00004000E0015000021242209A8FEF7D4F9DD
:1023000017230893236808AFFB6028230121059356
:102310008020243B0294049706960795039301F0CE
:1023200025FE041E0FDD0123019302AB0093002163
:10233000022304AA01F01CFE0500200001F024FE87
:10234000280013B0F0BD84256D42F9E730B591B097
:1023500004002422002107A8FEF7A6F918230693FB
:10236000236806ADEB602823012103938020243BE2
:1023700004940295059301F0F9FD041E0FDD01237D
:10238000019304AB00930021012302AA01F0F0FDA8
:102390000500200001F0F8FD280011B030BD8425B3
:1023A0006D42F9E7F0B5C64600B594B080460F001F
:1023B0001600002120220BA81D001A9CFEF774F9BC
:1023C000222342460A936B460C97DA851395002C1C
:1023D00037D00AAB0493282305931C9B08940693DB
:1023E0001D9B07931B9B09931E9B02931F9B0393AB
:1023F000102D29D8002E06D0002D04D02A0031003F
:102400000FA8FEF735F90121802001F0AFFD051E70
:102410001DDD230001225C1EA341019202AA0233AA
:102420000092002104AA01F0A3FD039A209B04005E
:102430001A60280001F0A8FD200014B004BC9046EA
:10244000F0BD1B9B002BC4D087246442F4E7842496
:102450006442F1E7F0B5C64600B594B080460F007F
:102460001600002120220BA81D001A9CFEF71CF963
:10247000232342460A936B460C97DA851395002C6A
:1024800037D00AAB0493282305931C9B089406932A
:102490001D9B07931B9B09931E9B02931F9B0393FA
:1024A000102D29D8002E06D0002D04D02A0031008E
:1024B0000FA8FEF7DDF80121802001F057FD051E71
:1024C0001DDD230001225C1EA341019202AA0233FA
:1024D0000092002104AA01F04BFD039A209B040006
:1024E0001A60280001F050FD200014B004BC904692
:1024F000F0BD1B9B002BC4D087246442F4E78424E6
:102500006442F1E7F0B5C64600B592B080460F00D0
:1025100015000021242209A81C00FEF7C5F82E236F
:102520000893434608AEF38028230593189B0121A6
:102530000293199B80200794049606950393B76035
:1025400001F014FD041E14DD0123019302AB00937E
:1025500004AA0223002101F00BFD039A1A9B050037
:102560001A60200001F010FD280012B004BC904653
:10257000F0BD84256D42F7E7F0B5C64600B592B0D0
:1025800080460F0015000021242209A81C00FEF738
:102590008BF82E230893434608AEF3802823059337
:1025A000189B01210293199B80200794049606959D
:1025B0000393B76001F0DAFC041E14DD01230193DC
:1025C00002AB009304AA0223002101F0D1FC039A7C
:1025D0001A9B05001A60200001F0D6FC280012B0FA
:1025E00004BC9046F0BD84256D42F7E7F0B5C646C1
:1025F00000B592B080460F0015000021242209A8E2
:102600001C00FEF751F82F230893434608AEF380D1
:1026100028230393189B01210693199B802005947E
:10262000029604950793B76001F0A0FC041E10DD2C
:10263000002300210193009302AA033301F098FCC8
:102640000500200001F0A0FC280012B004BC904658
:10265000F0BD84256D42F7E7F0B5C64600B592B0EF
:1026600080460F0015000021242209A81C00FEF757
:102670001BF82F230893434608AEF38028230393C7
:10268000189B01210693199B8020059402960495BE
:102690000793B76001F06AFC041E10DD00230021DF
:1026A0000193009302AA033301F062FC05002000AD
:1026B00001F06AFC280012B004BC9046F0BD8425ED
:1026C0006D42F7E7F0B595B005000C00170000214A
:1026D00024220BA81E00FDF7E7FF30230A936B4668
:1026E000DD851A9B0C94002B29D00AAB0493282378
:1026F00005931A9B079608931B9B02AE09931C9B9C
:10270000012102931D9B80207360069701F02EFC2F
:1027100004AC0500032300282BDD012200210192D7
:1027200028002200009601F023FC72681E9B040022
:102730001A60280001F028FC200015B0F0BD1B9B9A
:10274000002B19D10AAB0493282305931B9B0796F2
:10275000089309931C9B02AE02931D9B01218020CC
:102760007360069701F002FC04AC051E01DD022334
:10277000D3E784246442DFE787246442DCE7C04671
:10278000F0B595B005000C001700002124220BA81D
:102790001E00FDF789FF31230A936B46DD851A9BE6
:1027A0000C94002B29D00AAB0493282305931A9B81
:1027B000079608931B9B02AE09931C9B0121029371
:1027C0001D9B80207360069701F0D0FB04AC0500D0
:1027D000032300282BDD0122002101922800220082
:1027E000009601F0C5FB72681E9B04001A60280069
:1027F00001F0CAFB200015B0F0BD1B9B002B19D1C6
:102800000AAB0493282305931B9B0796089309930F
:102810001C9B02AE02931D9B0121802073600697D2
:1028200001F0A4FB04AC051E01DD0223D3E78424E0
:102830006442DFE787246442DCE7C04670B590B0AD
:102840000C0005002422002107A8FDF72DFF3323EB
:1028500006932B6806AEF3602823012103938020A2
:10286000243B04940296059301F080FB041E0FDDC7
:102870000123019304AB00930021012302AA01F07C
:1028800077FB0500200001F07FFB280010B070BD31
:1028900084256D42F9E7C046F0B591B014000600FA
:1028A0000D002422002107A8FDF7FEFE3823069321
:1028B000336806AFFB60282301218020059402972E
:1028C0000393049501F052FB041E0FDD01230193D5
:1028D00004AB00930021012302AA01F049FB05008B
:1028E000200001F051FB280011B0F0BD84256D429D
:1028F000F9E7C046F0B58FB005000F0016000021C3
:10290000202206A8FDF7D0FE362304932B6804ACE2
:10291000E360282301218020A780E68002940393AE
:1029200001F024FB041E0EDD00230021019300931F
:1029300002AA013301F01CFB0500200001F024FB7A
:1029400028000FB0F0BD84256D42F9E730B591B095
:1029500004002422002107A8FDF7A6FE3A230693CF
:10296000236806ADEB602823012103938020243BDC
:1029700004940295059301F0F9FA041E0FDD01237A
:10298000019304AB00930021012302AA01F0F0FAA5
:102990000500200001F0F8FA280011B030BD8425B0
:1029A0006D42F9E7F0B5C64600B592B0040088461E
:1029B0001700002120220AA81E00FDF775FE37230C
:1029C0000893434608ADAB8023680121EB602823C0
:1029D0000593189B8020079304230294EF800495AD
:1029E0000696039301F0C2FA041E11DD0123019340
:1029F00002AB00930021022304AA01F0B9FA0500FA
:102A0000200001F0C1FA280012B004BC9046F0BDCD
:102A100084256D42F7E7C04630B591B005000C0043
:102A20002422002107A8FDF73FFE3C23069306ABB6
:102A3000029328230495039300250594002C02D1CA
:102A4000280011B030BD0121802001F08FFA041E52
:102A50000DDD0123019304AB00930021012302AAA1
:102A600001F086FA0500200001F08EFAE8E78425DF
:102A70006D42E5E730B593B00C000500242200213B
:102A800009A8FDF711FE3D23089308AB0493282302
:102A90000593043B07930121223B80200294069575
:102AA000039301F063FA041E0FDD0123019302ABCF
:102AB00000930021022304AA01F05AFA0500200025
:102AC00001F062FA280013B030BD84256D42F9E7A9
:102AD000862040427047C046862040427047C0462C
:102AE000862040427047C046862040427047C0461C
:102AF000862040427047C046862040427047C0460C
:102B0000862040427047C046862040427047C046FB
:102B1000862040427047C046862040427047C046EB
:102B2000862040427047C046F0B5C64600B592B018
:102B30000700884615000021242209A81C00FDF783
:102B4000B3FD3B230893434608AEF3802823059347
:102B5000189B01210293199B8020079404960695E7
:102B60000393B76001F002FA041E14DD0123019300
:102B700002AB009304AA0223002101F0F9F9039AA1
:102B80001A9B05001A60200001F0FEF9280012B01F
:102B900004BC9046F0BD84256D42F7E770B590B057
:102BA00004000E002422002107A8FDF77DFD32233A
:102BB0000693236806ADEB60282301210393802050
:102BC000243B049402950593AE6001F0CFF9041EF6
:102BD0000FDD0123019304AB00930021012302AA1E
:102BE00001F0C6F90500200001F0CEF9280010B070
:102BF00070BD84256D42F9E770B58EB006000D00FA
:102C00002422002105A8FDF74FFD342304933368E7
:102C100004ACE36028230121802002942561039302
:102C200001F0A4F9041E0EDD00230021019300939E
:102C300002AA013301F09CF90500200001F0A4F97B
:102C400028000EB070BD84256D42F9E7F0B5C64688
:102C500000B590B00700884615000021242207A87F
:102C60001C00FDF721FD35230693434606AEB380D5
:102C70003B680121F360282380200594029603938A
:102C8000049501F073F9041E10DD00230021019367
:102C9000009302AA023301F06BF90500200001F055
:102CA00073F9280010B004BC9046F0BD84256D4235
:102CB000F7E7C046F0B593B0140005000E002422DB
:102CC000002109A8FDF7F0FC39230893336808AF09
:102CD000FB6028230593043B07930121223B8020BE
:102CE000029404970695039301F040F9041E0FDD4A
:102CF0000123019302AB00930021022304AA01F0F7
:102D000037F90500200001F03FF9280013B0F0BDAD
:102D100084256D42F9E7C046862040427047C04690
:102D2000862040427047C046862040427047C046D9
:102D3000862040427047C046862040427047C046C9
:102D4000862040427047C046862040427047C046B9
:102D500002B4714649084900095C49008E4402BC2E
:102D60007047C04603B47146490840004900095EF7
:102D700049008E4403BC704703B4714649084000C3
:102D80004900095A49008E4403BC70470022430899
:102D90008B4274D303098B425FD3030A8B4244D323
:102DA000030B8B4228D3030C8B420DD3FF22090265
:102DB00012BA030C8B4202D31212090265D0030B24
:102DC0008B4219D300E0090AC30B8B4201D3CB031A
:102DD000C01A5241830B8B4201D38B03C01A52415C
:102DE000430B8B4201D34B03C01A5241030B8B425E
:102DF00001D30B03C01A5241C30A8B4201D3CB0249
:102E0000C01A5241830A8B4201D38B02C01A52412D
:102E1000430A8B4201D34B02C01A5241030A8B4230
:102E200001D30B02C01A5241CDD2C3098B4201D348
:102E3000CB01C01A524183098B4201D38B01C01AC6
:102E4000524143098B4201D34B01C01A524103093D
:102E50008B4201D30B01C01A5241C3088B4201D3EC
:102E6000CB00C01A524183088B4201D38B00C01A99
:102E7000524143088B4201D34B00C01A5241411AC0
:102E800000D20146524110467047FFE701B50020CD
:102E900000F0F0F802BDC0460029F7D076E7704791
:102EA00003460B437FD4002243088B4274D30309AB
:102EB0008B425FD3030A8B4244D3030B8B4228D34C
:102EC000030C8B420DD3FF22090212BA030C8B4272
:102ED00002D31212090265D0030B8B4219D300E012
:102EE000090AC30B8B4201D3CB03C01A5241830B97
:102EF0008B4201D38B03C01A5241430B8B4201D347
:102F00004B03C01A5241030B8B4201D30B03C01A6F
:102F10005241C30A8B4201D3CB02C01A5241830AE9
:102F20008B4201D38B02C01A5241430A8B4201D318
:102F30004B02C01A5241030A8B4201D30B02C01A42
:102F40005241CDD2C3098B4201D3CB01C01A5241A9
:102F500083098B4201D38B01C01A524143098B4232
:102F600001D34B01C01A524103098B4201D30B011B
:102F7000C01A5241C3088B4201D3CB00C01A524140
:102F800083088B4201D38B00C01A524143088B4205
:102F900001D34B00C01A5241411A00D2014652419E
:102FA000104670475DE0CA0F00D04942031000D3BD
:102FB0004042534000229C4603098B422DD3030A12
:102FC0008B4212D3FC22890112BA030A8B420CD322
:102FD000890192118B4208D3890192118B4204D34B
:102FE00089013AD0921100E08909C3098B4201D3CB
:102FF000CB01C01A524183098B4201D38B01C01A05
:10300000524143098B4201D34B01C01A524103097B
:103010008B4201D30B01C01A5241C3088B4201D32A
:10302000CB00C01A524183088B4201D38B00C01AD7
:103030005241D9D243088B4201D34B00C01A5241AE
:10304000411A00D20146634652415B10104601D33B
:103050004042002B00D54942704763465B1000D3C5
:10306000404201B5002000F005F802BD0029F8D06B
:1030700016E770477047C046002B11D1002A0FD1C8
:10308000002900D1002802D00021C943081C07B440
:10309000024802A14018029003BDC046D9FFFFFFBD
:1030A00003B4684601B5029800F02EF8019B9E46D5
:1030B00002B00CBC7047C046F0B515042D0C0F00D3
:1030C00001002E00C64684460004140C000C090CB6
:1030D00046434D43604361434019340C241800B506
:1030E000A54203D98020400280464144250C6D183A
:1030F000614659437A43300449192404000C2018CE
:10310000891804BC9046F0BDF0B557464E4645467A
:10311000DE46E0B504000D009246994683B08B422E
:1031200030D82DD04946504600F0BAF829000600A4
:10313000200000F0B5F8331A9846203B9B4633D464
:103140005A465346934042461F00534693401E0042
:10315000AF423AD8AF4200D178E05B46A41BBD41F4
:10316000002B00DA75E00022002300920193012376
:103170005A4693400193012342469340009328E02E
:103180008242CFD900220023009201930C9B002B96
:1031900001D01C605D600098019903B03CBC904672
:1031A0009946A246AB46F0BD424620239B1A5246A2
:1031B000DA40414613004A468A40170042461F4300
:1031C000534693401E00AF42C4D900220023009210
:1031D00001934346002BD9D0FB0772081A43464699
:1031E0007B080EE0AB4201D1A2420CD8A41A9D414B
:1031F000012024196D410021013E24184D41002E6B
:1032000006D0AB42EED9013E24196D41002EF8D113
:10321000009801995B4600196941002B24DB2B00C3
:103220005A464446D3402A00E2401C005B46150043
:10323000002B2ADB26009E40330026004746BE4076
:103240003200801A9941009001919FE7A342BCD8B7
:1032500083E74246202300219B1A0022009101921D
:103260000122DA40019286E7424620239B1A2A0077
:1032700046469A402300F340444613432A00E24066
:103280001C005B461500002BD4DA42462F00202399
:10329000260097409B1ADE403B003343CDE7C046F3
:1032A00010B5002903D100F007F8203002E0081C17
:1032B00000F002F810BDC0461C2101231B049842F7
:1032C00001D3000C10391B0A984201D3000A0839B7
:1032D0001B09984201D30009043902A2105C40186E
:1032E0007047C04604030202010101010000000012
:1032F000000000000FB4F0B54E46DE465746454686
:103300000023E0B593B01CAE04CE0993019212786D
:103310000596002A01D100F0A6FC00259B469A469E
:1033200012E0013309AC019364196B1C09932271FB
:103330001F2B00D92CE1012294461D00E344019B80
:103340001A78002A00D111E1019B252AE9D15B7886
:10335000252B00D125E1583BDBB2202B00D9DAE048
:10336000984A9B00D3589F463023974A09AC904611
:103370006A1C6519002722602B711F2A0BD843464F
:103380000137DB5D002B11D025686A1C65192260AE
:103390002B711F2AF3D9534620210AA823601EF05F
:1033A00089FA43460137DB5D002BEDD153460822F5
:1033B000002107A820CE0693FDF776F90F23190008
:1033C000824A2940515CBB4406AF894639702909BD
:1033D00001D100F058FD1940515C7970290A01D1E2
:1033E00000F08AFD1940515CB970290B01D100F041
:1033F00088FD1940515CF970290C01D100F0E3FC03
:103400001940515C3971290D01D100F089FD194035
:10341000515C7971290E01D100F085FD0B40D35C20
:10342000BB712B0F01D100F08BFD0825D35CFB7124
:103430007B19013B197823685A1CE3182260197123
:103440001F2A01D900F03DFCAB1EF95C98462368A9
:103450005A1CE318226019711F2A01D900F00DFCD3
:103460004346002B54D0EB1EF95C984623685A1C47
:10347000E318226019711F2A01D900F02AFC434683
:10348000002B45D02B1FF95C984623685A1CE31883
:10349000226019711F2A01D900F03FFC4346002B1E
:1034A00036D06B1FF95C984623685A1CE3182260DB
:1034B00019711F2A01D900F054FC4346002B27D074
:1034C000AB1FF95C984623685A1CE31822601971F7
:1034D0001F2A01D900F06CFC4346002B18D0EB1FCB
:1034E000F95C984623685A1CE318226019711F2A58
:1034F00001D900F07BFC4346002B09D049462368E4
:103500005A1CE318226019711F2A01D900F096FC99
:10351000AB44256851E05B2309AC6A1C65190027A0
:1035200022602B711F2A0BD8294B0137DB5D002B42
:1035300012D015006A1C651922602B711F2AF3D95D
:10354000534620210AA823601EF0B4F9204B01370E
:10355000DB5D2268002BECD1019B15000133019348
:10356000019BBB441A78002A00D0EDE6002D04D060
:1035700029000AA81EF09EF98344584613B03CBCAB
:1035800090469946A246AB46F0BC08BC04B018472A
:10359000534620210AA809931EF08CF9099BCAE61C
:1035A00004CE09AC6B1C6419099322711F2B00D93E
:1035B00012E3012294461D00E344019B0233019370
:1035C000BDE6C046B83F0010A03F00103C400010D0
:1035D000A43F001053460822002107A810CE0693EE
:1035E000FDF762F8D44A06AF0F2319002140515C61
:1035F00089463970210900D197E31940515C7970EF
:10360000210A00D1AAE31940515CB970210B00D105
:10361000BDE31940515CF970210C00D1DCE3194085
:10362000515C3971210D00D1EFE31940515C797182
:10363000210E01D100F00AFC0B40D35C240FBB71BA
:1036400001D100F044FC135DFB710823984643460A
:10365000FB18013B1A7809AC6B1C651909932A7198
:103660001F2B00D9E3E242462368951E795D5A1C60
:10367000E318226019711F2A00D9D1E2002D49D028
:1036800042462368D51E795D5A1CE31822601971E1
:103690001F2A00D9D2E2002D3CD042462368151FD4
:1036A000795D5A1CE318226019711F2A00D9CCE2F7
:1036B000002D2FD042462368551F795D5A1CE31810
:1036C000226019711F2A00D9C6E2002D22D042467D
:1036D0002368951F795D5A1CE318226019711F2A0F
:1036E00000D9C3E2002D15D042462368D51F795D6D
:1036F0005A1CE318226019711F2A00D982E2002D9A
:1037000008D0494623685A1CE318226019711F2A01
:1037100000D97EE22568C3444FE7330040CB08223E
:1037200099465346002107A806AF0693FCF7BCFF55
:10373000002E00DA58E2002309AC02930A2130007F
:10374000FFF7AAFB3031CBB230000A213B70039364
:10375000FFF71CFB8046092E00D8A7E30A21FFF7DC
:103760009BFB3031404679700A21FFF70FFB804602
:10377000632E00D8C3E30A21FFF78EFB30314046A9
:10378000B9700A21FFF702FBFA2380469B009E4294
:1037900000D2BCE30A21FFF77FFB30314046F970CD
:1037A0000A21FFF7F3FA654B80469E4200D8B0E34A
:1037B0000A21FFF771FB3031404639710A21FFF7CA
:1037C000E5FA5F4B80469E4200D8A4E30A21FFF74A
:1037D00063FB3031404679710A21FFF7D7FA594B24
:1037E00080469E4200D8A1E30A21FFF755FB303105
:1037F0004046B9710A21FFF7C9FA534B80469E42F1
:1038000000D89BE30A21FFF747FB30314046F971AE
:103810000A21FFF7BBFA4D4B80469E4200D895E344
:103820000A21FFF739FB3031397240460A21FFF790
:10383000ADFA474B9E4200D88AE30A2630307872B0
:10384000BB19013B1A786B1C651923602A711F2B69
:1038500000D928E22368B51E795D5A1CE31822605E
:1038600019711F2A00D910E2002D5ED02368F51EC1
:10387000795D5A1CE318226019711F2A00D937E2BA
:10388000002D52D02368351F795D5A1CE318226041
:1038900019711F2A00D939E2002D46D02368751FFF
:1038A000795D5A1CE318226019711F2A00D967E25A
:1038B000002D3AD02368B51F795D5A1CE3182260A9
:1038C00019711F2A00D96CE2002D2ED02368F51F34
:1038D000795D5A1CE318226019711F2A00D97EE213
:1038E000002D22D035002368083D795D5A1CE3186D
:1038F000226019711F2A00D992E2002D15D03500DF
:103900002368093D795D5A1CE318226019711F2A4A
:1039100000D99FE2002D08D0236803995A1CE318B0
:10392000226019711F2A00D9DCE2029B25689C469F
:103930006644B3444E4640E63C4000100F2700006A
:103940009F8601003F420F007F969800FFE0F5053B
:10395000FFC99A3B534610CE0822002107A80693C0
:10396000FCF7A2FE0A212000FFF796FA3031CBB215
:1039700006AF0A2120003B709846FFF707FA814600
:10398000092C00D874E20A21FFF786FA3031484644
:1039900079700A21FFF7FAF98146632C00D8A8E272
:1039A0000A21FFF779FA30314846B9700A21FFF74A
:1039B000EDF9FA2381469B009C4200D2A4E20A2141
:1039C000FFF76AFA30314846F9700A21FFF7DEF94D
:1039D000DB4B81469C4200D8F2E10A21FFF75CFAFA
:1039E0003031484639710A21FFF7D0F9D54B81466D
:1039F0009C4200D891E20A21FFF74EFA3031484646
:103A000079710A21FFF7C2F9CF4B81469C4200D859
:103A10008EE20A21FFF740FA30314846B9710A2197
:103A2000FFF7B4F9C94B81469C4200D883E20A21D2
:103A3000FFF732FA30314846F9710A21FFF7A6F94B
:103A4000C34B81469C4200D87DE20A21FFF724FA4D
:103A50003031397248460A21FFF798F9BD4B9C4234
:103A600000D877E20A239946303078724B46FB182B
:103A7000013B1A7809AC6B1C651909932A711F2B3D
:103A800000D917E14A462368951E795D5A1CE31850
:103A9000226019711F2A00D9FEE0002D63D04A462A
:103AA0002368D51E795D5A1CE318226019711F2AFC
:103AB00000D916E1002D56D04A462368151F795DBE
:103AC0005A1CE318226019711F2A00D917E1002D32
:103AD00049D04A462368551F795D5A1CE318226075
:103AE00019711F2A00D944E1002D3CD04A462368B1
:103AF000951F795D5A1CE318226019711F2A00D99D
:103B000048E1002D2FD04A462368D51F795D5A1C05
:103B1000E318226019711F2A00D96FE1002D22D00D
:103B20004D462368083D795D5A1CE31822601971DF
:103B30001F2A00D97BE1002D15D04D462368093D91
:103B4000795D5A1CE318226019711F2A00D988E197
:103B5000002D08D0414623685A1CE31822601971D1
:103B60001F2A00D9B7E12568CB4426E508CE984640
:103B70001B78002B00D120E5320009AC4646904668
:103B80006A1C6519002722602B711F2A0AD8013789
:103B9000F35D002B11D015006A1C651922602B7192
:103BA0001F2AF4D9534620210AA8013723601DF0AB
:103BB00081FEF35D2268002BEDD146461500BB4423
:103BC000FBE453460822002107A810CE069306AF57
:103BD000FCF76AFD604A07E5534620210AA80993CD
:103BE0001DF068FE099BE4E42D2209AC6B1C6519ED
:103BF00009932A711F2B00D90AE11D000123764287
:103C000002939BE5534620210AA823601DF052FE33
:103C100075E5534620210AA823601DF04BFE79E587
:103C2000534620210AA823601DF044FE26E5534692
:103C300020210AA809931DF03DFE14E553462021DA
:103C40000AA823601DF036FE25E5534620210AA868
:103C500023601DF02FFE2BE5534620210AA8236088
:103C60001DF028FE31E500239B4686E453462021C3
:103C70000AA823601DF01EFE34E5534620210AA841
:103C800023601DF017FEFFF7EBFB534620210AA827
:103C900023601DF00FFEE7E5534620210AA82360AC
:103CA0001DF008FEF9E6534620210AA823601DF006
:103CB00001FECFE5534620210AA809931DF0FAFD25
:103CC000E0E6534620210AA823601DF0F3FDFFF72C
:103CD000BBFB534620210AA823601DF0EBFDFFF734
:103CE000CEFB534620210AA823601DF0E3FDE1E648
:103CF000534620210AA823601DF0DCFDC0E5534691
:103D000020210AA823601DF0D5FDE0E653462021BE
:103D10000AA823601DF0CEFDBEE5534620210AA867
:103D200023601DF0C7FDFFF7B9FB3A7809AC6B1CA7
:103D3000651909932A711F2B48D801239846E9E495
:103D40000F2700009F8601003F420F007F969800DA
:103D5000FFE0F505FFC99A3B4C400010022398464E
:103D600075E4534620210AA823601DF0A3FDFFF748
:103D7000A4FB534620210AA823601DF09BFDB3E657
:103D8000534620210AA823601DF094FD90E50323EB
:103D900098465CE4534620210AA823601DF08AFD62
:103DA000AFE6534620210AA823601DF083FD8BE572
:103DB000534620210AA823601DF07CFDFFF78CFBF1
:103DC0000423994652E60425FFF732FB09910AA81D
:103DD00020211DF06FFDB0E70423984637E45346D9
:103DE00020210AA823601DF065FD79E553462021B6
:103DF0000AA823601DF05EFDFFF77DFB53462021DE
:103E00000AA823601DF056FD88E6052398461EE4A7
:103E1000534620210AA809931DF04CFD099BECE6AE
:103E2000534620210AA823601DF044FD65E5534652
:103E300020210AA823601DF03DFD7CE65346202189
:103E40000AA823601DF036FDFFF762FB06239846A3
:103E5000FFF7FDFB534620210AA823601DF02AFD31
:103E600058E5534620210AA823601DF023FD6FE684
:103E70003A7809AC6B1C651909932A711F2B6CD811
:103E8000012399466FE6236838785A1CE3182260AC
:103E900018711F2A02D80125FFF73AFB21600AA8F2
:103EA00020211DF007FD0125FFF732FB3A786B1C3E
:103EB000651923602A711F2B01D8012635E5534669
:103EC00020210AA8236001261DF0F4FC2DE507231C
:103ED0009846FFF7BCFB534620210AA823601DF03B
:103EE000E9FC40E6534620210AA823601DF0E2FCCD
:103EF0001BE502239946B9E50225FFF799FA022648
:103F00009EE40325FFF794FA03239946AEE50326C2
:103F100096E4042694E4052692E405239946A5E553
:103F20000525FFF785FA0625FFF782FA062687E4BE
:103F3000062399469AE50723994697E507267FE4E5
:103F40000725FFF775FA082399468FE5082677E4D9
:103F5000092675E40923994688E5534620210AA8D5
:103F600009931DF0A7FC8BE711DF704710DF704746
:103F700000B585B00293079B0191039301A9069BAD
:103F8000FFF7F2FF05B000BD12DF70470BDF70478F
:103F900013DF704715DF704717DF704718DF704772
:103FA000307800005B556E737570706F7274656465
:103FB000205461675D000000C23B00101635001000
:103FC0001635001016350010163500101635001085
:103FD0001635001016350010163500101635001075
:103FE00016350010A03500101A37001016350010D5
:103FF0001635001016350010163500101A3700104F
:104000001635001016350010163500101635001044
:1040100016350010163500106833001016350010E4
:10402000163500106C3B0010163500105439001086
:104030001635001016350010D435001030313233EB
:10404000343536373839616263646566303132330E
:104050003435363738394142434445460000000084
:1040600030B5144C87B02369A568082B1FD1A3690C
:10407000042B1CD104330021606804AAFFF78AFFD7
:104080002369834213D1A3690221606803AAFFF761
:1040900081FFA36983420AD1039B280001936369CE
:1040A0000093049A059B00F01BF907B030BD8120F6
:1040B0004042FAE700100108F0B5CE46474680B509
:1040C0008DB000F0FFF8002829D106AB9846802774
:1040D0006B4C08AE8021012009064042FFF756FFD5
:1040E0000300C2061CD4820653D4420647D4020001
:1040F0003A409146384200D09AE080204000034286
:1041000026D02100FFF744FF2568002D21DAAB1CE3
:1041100000DA8CE049466068FFF740FFDAE7FEE727
:1041200021001020FFF734FF2368002B06DA02334A
:104130000DDB00216068FFF731FFCBE7002B75D165
:10414000FFF78EFF01006068FFF728FFC2E7FEE778
:10415000FEE7002D00D08AE0236A9946042B00D0A8
:104160008BE000F015F94B4608903200290060689A
:10417000FFF712FF29006068FFF710FFAAE7210090
:104180004020FFF705FF216800290CDA8B1CD0DAEC
:10419000FEE721002020FFF7FBFE2168002920DA3E
:1041A0008B1CC6DAFEE7002962D12369082B64D193
:1041B000226A0C2A61D142466068FFF7EBFE236950
:1041C00098425AD1069A079B0096A06800F0BAF868
:1041D000051ECFD101003200236A6068FFF7DCFEC4
:1041E000C8E7002942D12369082B43D16269042A18
:1041F00040D132006068FFF7CDFE2369984239D183
:1042000063690121606805AAFFF7C4FE63699842EB
:1042100030D143460293236A0193059B0093A06823
:10422000089A099B00F078F8010074E78FE7FEE731
:1042300021003800FFF7ACFE2168002903DA8B1C4F
:1042400000DB76E7FEE7002913D12369082B11D1A3
:1042500032006068FFF79EFE236998420AD1089AEF
:10426000099BA06800F07EF8010054E79AE7DEE7BA
:104270008EE7E7E7812149424DE781256D4279E7E5
:1042800000100108084B10B502000C0058680B0024
:104290000121FFF77FFE201A444260418124404201
:1042A0002040813810BDC0460010010810B50B0039
:1042B0000349020048680021FFF76EFE10BDC046AA
:1042C0000010010810B500F065F8002800D110BDFD
:1042D00000F0A0F90028FAD100F05CF8F7E7C0463A
:1042E0001900130010B50B43040082B01000002B1E
:1042F0000ED00723059A9A4307D1049B220000930E
:10430000059B00F08BF802B010BD86204042FAE712
:1043100087204042F7E7C0461900130010B50B4351
:10432000040082B01000002B09D0069B22000193EC
:10433000059B0093049B00F03BF802B010BD872062
:104340004042FAE71900130010B50B4304001000B7
:10435000002B04D02200029B00F0FCF810BD872047
:104360004042FBE71900130010B50B430400100096
:10437000002B06D0220000F00FF90300953303D084
:1043800010BD87204042FBE784204042F8E7C0464A
:104390000020704710B5044C200000F015FA034BC4
:1043A000283C5C6010BDC046601001083010010858
:1043B000F8B5164D1E002B0000F04CFC041E01D079
:1043C0002000F8BD124F2868390000F0EFFE041EEF
:1043D00004D1FD69B54207D2872464420021380028
:1043E0000C4AFCF761F9EBE7069BAD1B9D4200D937
:1043F0001D00094829003018FFF758FF079B0021CE
:104400003800044A1D60FCF74FF9D9E73010010865
:10441000381001082808000060100108F0B5574660
:104420004E464546DE46E0B51700802283B09A46E8
:104430000C9B06000D001201934200D96EE0414B27
:104440003A00994600F006FC041E4CD003008C3361
:104450000ED03D4B9846002140463C4AFCF724F9DB
:10446000200003B03CBC90469946A246AB46F0BD46
:10447000354B364A984618000021FCF715F943469B
:104480000C9A1A6252465A6202239B4600230193F9
:104490002F4B0C9918009A46FFF7F4FE041EDAD150
:1044A00028235B429C46E24453460C9A49465846B0
:1044B000DA6100F02DFA041ECDD14B465146186842
:1044C00000F0B6FE041EC6D14B463A00300029006B
:1044D00000F0A6FA041E2FD1019B002B21D100F081
:1044E00033FD0400B7E7184B190098464B4618688F
:1044F00000F05CFE041EAED143465B6ADB070AD4C3
:10450000434652465A620C9A1A624B461B68019304
:1045100001239B46BCE7852464429CE787246442D0
:104520009EE700F011FD041E00D094E700210198E1
:10453000FDF7E0F904008EE74B4600211868FDF70F
:10454000D9F988E730100108381001082808000060
:1045500060100108F8B50D4E1D00330000F07AFB25
:10456000041E01D02000F8BD094F3068390000F06A
:104570001DFE041E03D17B6AFA69AB606A600021EC
:104580003800044AFCF790F8ECE7C0463010010808
:104590003810010828080000F8B5CE4647461A4BE7
:1045A00080B506000D009146984600F053FB041EAE
:1045B00004D020000CBC90469946F8BD4346134FEA
:1045C0001868390000F0F2FD041E04D17B6ADB0795
:1045D00007D585246442002138000D4AFCF764F8B1
:1045E000E7E74A463000290000F0E2FB041EF2D162
:1045F00043461D6800F0A8FC041EECD128000021F1
:10460000FDF778F90400E6E73010010838100108DA
:104610002808000010B500F0BFF810BD002310B549
:1046200082B0040001A90120019300F055FE00288A
:1046300025D1019B9C4205D80BE0019B01330193DE
:10464000A34206D2012000F053FE0028F5D002B0AC
:1046500010BD022001A900F03FFE00280FD1019BF0
:104660009C4206D80020F2E7019B01330193A3424C
:10467000F8D2022000F03CFE0028F5D0E7E78420C5
:104680004042E4E7F0B583005E58DBB0B227CA6869
:104690006B460C0031007F00DA511C313A000500F6
:1046A0006846FBF7E5FFB42269463000520000F08F
:1046B00059FD002818D02369002B04D16419013357
:1046C00023725BB0F0BD6A46D351B4226946300014
:1046D000520000F047FD431E984101234042984399
:1046E000033064192072ECE7022364192372E8E7AF
:1046F000F0B5C646002300B50020DEB0039300F0FD
:10470000F7FD041E04D020005EB004BC9046F0BD4E
:10471000002003A900F0E0FD041EF4D100F020FC0D
:10472000041EF0D11B4D039C280000F077FC1021E3
:104730006B46B2225B182900520018001C319C50B5
:10474000FBF796FFB4222800520004A900F0E6FC13
:10475000041E1BD100F04AFC041ED4D18223C026C3
:10476000FF33EF5C76000094984632002B00002166
:10477000781CFDF739F8041EC5D14246AB5D03989D
:10478000AB54AF55FFF74AFF0400BCE700F02EFC26
:10479000B9E7C0466018010810B500F093FD002885
:1047A0000ED1C422074C520000212000FBF77CFFF1
:1047B000C02301225B00E25201232377FFF798FF19
:1047C00010BDC04660180108002370B588B003AD65
:1047D0002B81EB602B6102AB68600193C0234B4ED1
:1047E00000220120002100965B000396FDF726F8C9
:1047F000002801D001232B7202AB01936B680022C9
:104800000093C023022000215B00FDF717F8002869
:1048100001D001236B7200F0A3FB041E02D0200024
:1048200008B070BD00F04EFD041E05D1002006A9A1
:1048300000F052FD041E02D000F0D8FBEFE701208B
:1048400002A900F049FD041EF6D1022007A900F0DC
:1048500043FD041EF0D12B69029A934200D02861D7
:104860002B7A012B3DD16B7A012B35D100F0BEFBA9
:10487000041ED4D1039B1B7F012B01D001232B727B
:1048800069680B7F012B01D001236B7202232A89F7
:10489000FF339A4237D0C0222B7A5200012B28D006
:1048A0006B7A012B2CD0022B20D0C0235B008022FE
:1048B000022000215200F252FDF71CF8041E02D023
:1048C00003008C33ABD1E868FFF7A8FE041EA6D125
:1048D000300000F099FBA2E729000120FFF7D2FE8B
:1048E000C4E729000020FFF7CDFEBCE7C02201236A
:1048F00052003000B352FBF7BBFE01200021DBE782
:104900008033FF33D3E78424644288E760180108CA
:1049100070B50D00002800D17CE0404B1A6B596B3C
:104920000A4302D10138002851D01A6D596D0A434B
:1049300003D10138002800D15AE01A6F596F0A4399
:1049400002D10138002855D01900903106C90A4318
:1049500002D1013800284FD01900B03106C90A43EE
:1049600002D10138002849D01900D03106C90A43C4
:1049700002D10138002843D01900F03106C90A439A
:1049800002D1013800283DD019001131FF3106C98C
:104990000A4302D10138002836D019003131FF31E5
:1049A00006C90A4302D1013800282FD0190051311D
:1049B000FF3106C90A4302D10138002828D07133DB
:1049C000FF330CCB1A4310D101280ED10930C41C7F
:1049D00020000021FCF78EFF002802D100202C606F
:1049E00070BD03008C33FBD1F8E78E204042F7E71F
:1049F0000120ECE70220EAE70320E8E70420E6E7ED
:104A00000520E4E70620E2E70720E0E70820DEE7EC
:104A10000920DCE787204042E2E7C0466018010831
:104A2000F0B5DE4657464E464546E0B5884C1F0079
:104A3000236B05008B46160089B0834257D0236D47
:104A4000AB4200D194E0236FAB4200D19AE0230047
:104A500090331A68AA4200D19EE02300B0331A684E
:104A6000AA4200D1A3E02300D0331A68AA4200D1A1
:104A7000A8E02300F0331A68AA4200D1ADE0230079
:104A80001133FF331A68AA4200D1B1E02300313359
:104A9000FF331A68AA4200D1B6E023005133FF3336
:104AA0001A68AA4200D1BBE023007133FF331A68B1
:104AB000AA4200D1C0E059463A68D31E023A5201D8
:104AC0005B01E318A4181D635963102279689E6383
:104AD0002000FBF7CDFDFFF70BFE051E42D128009D
:104AE00009B03CBC90469946A246AB46F0BD636B0C
:104AF0008B42A4D1A36B9A42A1D1002301335B0165
:104B00009846A044202241466846FBF7B1FD434643
:104B10001B6920229A4643465B690021404699461C
:104B2000FBF7C2FD59463A68D31E023A52015B01B7
:104B3000E318A4181D635963102279689E6320004E
:104B4000FBF796FDFFF7D4FD051EC8D053464A4635
:104B5000134307D0534605926946202240460493EA
:104B6000FBF786FD202200212000FBF79DFDB6E724
:104B7000636D5B4500D066E7A36D9E4200D062E79F
:104B80000123BBE7636F5B4500D060E7A36F9E42E4
:104B900000D05CE70223B1E75B685B4500D05CE7CF
:104BA0009823E3589E4200D057E70323A6E75B68AB
:104BB0005B4500D057E7B823E3589E4200D052E748
:104BC00004239BE75B685B4500D052E7D823E3589A
:104BD0009E4200D04DE7052390E75B685B4500D01F
:104BE0004DE7F823E3589E4200D048E7062385E7C7
:104BF0005B685B4500D049E78C235B00E3589E422D
:104C000000D043E7072379E75B685B4500D044E7C2
:104C10009C235B00E3589E4200D03EE708236DE7EB
:104C20005B685B4500D03FE7AC235B00E3589E42E6
:104C300000D039E7092361E75B685B4500D03AE7BC
:104C4000BC235B00E3589E4200D034E70A2355E7BB
:104C50006018010870B5554C256B854234D0256D20
:104C6000854243D0256F854248D0250090352E6877
:104C700086424BD02500B0352E6886424FD02500A5
:104C8000D0352E68864253D02500F0352E688642F6
:104C900057D025001135FF352E6886425AD02500A1
:104CA0003135FF352E6886425ED025005135FF35FF
:104CB0002E68864262D025007135FF352E68864207
:104CC00067D08C20404270BD656B8D42C7D1A56B0B
:104CD000AA42C4D10021CA1C013149011A60586896
:104CE00010226118FBF7C4FC0020ECE7656D8D42D3
:104CF000B8D1A56DAA42B5D10121ECE7656F8D420F
:104D0000B3D1A56FAA42B0D10221E4E76D688D420C
:104D1000B0D198256559AA42ACD10321DBE76D6873
:104D20008D42ACD1B8256559AA42A8D10421D2E759
:104D30006D688D42A8D1D8256559AA42A4D1052114
:104D4000C9E76D688D42A4D1F8256559AA42A0D162
:104D50000621C0E76D688D42A1D18C256D00655993
:104D6000AA429CD10721B6E76D688D429DD19C2552
:104D70006D006559AA4298D10821ACE76D688D4253
:104D800099D1AC256D006559AA4200D093E709215D
:104D9000A1E76868884200D093E7BC2149006158C8
:104DA0008A4200D08DE70A2195E7C04660180108C5
:104DB00030B5644B89B01C6B84423BD01C6D84427F
:104DC00056D01C6F84425BD01C009034256885420D
:104DD0005ED01C00B0342568854262D01C00D034FF
:104DE0002568854267D01C00F0342568854200D1D3
:104DF0006CE01C001134FF342568854200D170E05E
:104E00001C003134FF342568854200D175E01C0058
:104E10005134FF342568854200D17AE01C0071349A
:104E2000FF342568854200D17FE08C256D42280043
:104E300009B030BD5C6B8C42C0D19C6BA242BDD12D
:104E40000024013464011C19202221006846FBF76C
:104E50000FFC202200212000FBF726FCFFF748FC76
:104E6000051EE4D0202269462000FBF701FCDEE7A6
:104E70005C6D8C42A5D19C6DA242A2D10124E0E7D9
:104E80005C6F8C42A0D19C6FA2429DD10224D8E7D6
:104E900064688C429DD198241C59A24299D1032464
:104EA000CFE764688C4299D1B8241C59A24200D043
:104EB00094E70424C5E764688C4200D093E7D824C3
:104EC0001C59A24200D08EE70524BAE764688C42E0
:104ED00000D08EE7F8241C59A24200D089E70624AE
:104EE000AFE764688C4200D08AE78C2464001C59C8
:104EF000A24200D084E70724A3E764688C4200D074
:104F000085E79C2464001C59A24200D07FE7082456
:104F100097E764688C4200D080E7AC2464001C5999
:104F2000A24200D07AE709248BE76068884200D06B
:104F30007BE7BC21490059580A248A4200D074E713
:104F40007FE7C04660180108822310B5034AFF338B
:104F5000D05C00210130FCF7CDFC10BD60180108C9
:104F600030B58BB00021202202A8FBF79DFB002367
:104F70000093C0239B000493164B01AC0593164B82
:104F800068460193802315492383FDF707FE002817
:104F900001D00BB030BD0C236846114A1149FDF712
:104FA00055FE00280FD1104D69462A002000FDF75C
:104FB00081FE002807D16846FDF7C8FC0028E8D02C
:104FC0002888FCF745FD6846FDF7C0FC8420404278
:104FD000DFE7C0460210400601000040000F00B0AD
:104FE0000453001001020000F4190108054B10B52C
:104FF0001888FCF72DFD002800D110BD8420404208
:10500000FBE7C046F4190108010010B50C22024864
:105010001031FBF72DFB10BDE8190108F0B583B086
:105020006C460E4923000A0060CA60C30122009E3C
:10503000019F002392197B41009201931A4353422E
:105040005A410B008D681030AD1844CC44C30C227B
:105050008D60FBF70DFB03B0F0BDC046E8190108F9
:10506000F0B51400020089B0109F05001148119E90
:10507000008805970F9F029304970E9F019400915B
:105080000C230D49103206960397FDF78BF9041E89
:105090000CD10F9B31689C461039316010222800DA
:1050A0006144FBF7E5FA200009B0F0BD84246442B6
:1050B000F9E7C046F419010802104006F0B5C646EB
:1050C0000400904600B588B00E9E0F00981910227B
:1050D00021001D00FBF7CCFA0E4B22001888119B13
:1050E00010360693109B0C4905930F9B10320493C6
:1050F00043460396019302950C230097FDF7AAF906
:10510000002803D108B004BC9046F0BD9520404271
:10511000F8E7C046F419010802104006030030B554
:1051200014008BB002000D4809AD00880695049369
:10513000102500230091039302930949103205952D
:1051400001940C33FDF72EF9002804D1099B102B94
:1051500001D10BB030BD84204042FAE7F4190108B8
:105160000210400630B503008BB0150002000D4858
:1051700009AC00880694002405940494103402932A
:1051800000910C230849103203940195FDF762F950
:10519000099B184343425841952340421840953893
:1051A0000BB030BDF419010802104006F0B589B00B
:1051B00005AB01930B0010330D000093002200217A
:1051C000184B0400FCF73AFB002801D009B0F0BDF1
:1051D000059E0694FFF7C4FE0028F7D134002F0087
:1051E000114E0C3C1C37220039003000FBF740FA0E
:1051F00007AB03930D4B0422029328003300019761
:10520000009406A9FFF75AFF002805D1079B9C428E
:1052100002D1FFF7EBFED9E7FFF7E8FE842040421A
:10522000D4E7C04628080000F81901080C0800005F
:10523000F0B5CE46474680B587B005000C00CE6974
:105240000490FFF78DFE002804D007B00CBC9046F8
:105250009946F0BD1C23370098462000FFF7DEFE7C
:1052600005AB0393154B0C370293154BA04499469D
:105270000193042243462000009704A9FFF7F0FEA3
:10528000002815D1059B9F4212D13A00494640465D
:10529000FBF7EEF9FFF7AAFE0028D6D12300320073
:1052A00000900021280010331832FCF79DFACCE75B
:1052B000FFF79CFE84204042C7E7C0461C08000060
:1052C000F819010810B51FF095F8434258414342C0
:1052D00084201840843810BD0A0010B504211FF046
:1052E000CFF843425841434284201840843810BDCF
:1052F00010B51FF015F9434258414342842018402D
:10530000843810BD73746F726167655F6B65790077
:10531000000000000000000000000000000000008D
:10532000F0B5CE46474680B58DB000F0F7F80028BE
:1053300038D1812706AB98466B4C08AD7F4280215F
:10534000012009064042FEF721FEC3061ED4830653
:105350002AD443065AD4030625D521008020FEF71F
:1053600017FE0028EBD12168002900DB7FE08B1CB1
:1053700000DAA9E000216068FEF710FE802101201C
:1053800009064042FEF702FEC306E0D521001020C8
:10539000FEF7FEFD0028D2D12168002910DA8B1C0F
:1053A000E8DAFEE7FEE7FEE721002020FEF7F0FD49
:1053B0000028C4D12168002934DA8B1CDADAFEE730
:1053C000002900D081E02369082B00D083E0A66982
:1053D000042E00D07FE06269606891462A00FEF7E3
:1053E000D9FD082877D13300424602216068FEF7D4
:1053F000D1FD04286FD1069B01934B460093A06812
:10540000089A099B00F0BCF80100B4E72100402095
:10541000FEF7BEFD002892D12168002939DA8B1CE5
:10542000A8DAFEE7002953D12369082B53D1666916
:10543000042E50D1226A606891462A00FEF7AAFD28
:10544000082848D133000121606805AAFEF7A2FDB3
:10545000042840D1434602934B460193059B009399
:10546000A068089A099B00F01BF9010083E7002956
:105470002DD12369082B2ED12A006068FEF78AFD02
:10548000082828D1089A099BA06800F09BF9010020
:1054900071E700291AD12369082B1AD1226A0C2A34
:1054A00017D142466068FEF775FD082811D1069AAB
:1054B000079B0095A06800F057F9061E0DD031003B
:1054C0006068FEF76BFD3AE7FEE76AE7A9E7FBE7EE
:1054D00075E73E00F3E739004DE70C232A00002171
:1054E0006068FEF759FDEAE78028010810B50B0057
:1054F0000349020048680121FEF74CFD10BDC0467B
:105500008028010810B50B000349020048680021FB
:10551000FEF742FD10BDC0468028010810B50020EE
:1055200000F084F9144C0100200000F0C1F90028BB
:105530000BD0200000F0C2F9002800D010BD00F010
:1055400075F90100200000F0B3F9012000F06EF9B8
:105550000A4C0100200000F0ABF90028EED020003A
:1055600000F0ACF90028E9D1013000F05FF901004A
:10557000200000F09DF9E1E7B02A0108C42A0108E3
:10558000F0B5DE4657464E4645461100E0B5194394
:1055900085B0002900D174E007210F9C8C4368D1AD
:1055A00003933A4B02929A4602AA01C312CA12C34B
:1055B00080235B00984259D0354B9B46354C514671
:1055C0002200584600F0F4F98046031E43D08C3385
:1055D00039D180230E9F9B009F4200D91F002E4B84
:1055E000390099461800FFF781FF4B4601930F9B46
:1055F0005146009358463B000E9A00F063F98046EE
:10560000002820D10E9BDD1BBB4203D11BE03F19BC
:105610002D1B18D080232C009B009D4200D91C001C
:1056200021004846FFF762FF4B4622000093514697
:105630003B00584600F0E0F9061EE8D051465846B7
:1056400000F044FAB046404605B03CBC904699464E
:10565000A246AB46F0BDA368DB070ED451465846C0
:1056600000F034FA80460028B3D0ECE70B4B9B46A1
:10567000A4E786235B429846E5E785235B4298468C
:10568000E1E787235B429846DDE7C046D82A010858
:10569000B02A0108E42A0108B0280108C42A010838
:1056A000F0B55746DE464E4645461100E0B585B09A
:1056B0000E9F19434AD00393264B0292994602AAA1
:1056C00001C312CA12C380235B0098423BD0224B15
:1056D0009A46224C49462200504600F069F9061EBF
:1056E00027D12468BC4231D30F9BE41B9C4228D8AD
:1056F000109B1C601A4B984680239B009B4606E03B
:1057000029004046FFF7FEFE7F19641B11D02500DB
:105710005C4501D98025AD0043462A0000934946E7
:105720003B00504600F058FA061EE9D00023109ABC
:105730001360300005B03CBC90469946A246AB468B
:10574000F0BD1C00D4E7074B9A46C2E78726764295
:10575000EFE7C046D82A0108B02A0108E42A010868
:10576000B0280108C42A0108110070B582B0069C57
:1057700019431BD00F4901930B0000926A4601C3E5
:1057800060CA60C380235B0098420DD00A480B4D6D
:105790002A0000F00DF9002804D1AA682B68A26045
:1057A0002360636002B070BD0548F0E78720404287
:1057B000F8E7C046D82A0108B02A0108E42A0108FF
:1057C000C42A0108110070B5194382B000291FD006
:1057D000124C0193230000926A4601C322CA22C3DD
:1057E00080235B00984211D00D4E0E4D21002A00FF
:1057F000300000F0DDF8002806D1AB68DB070AD4E2
:105800002100300000F062F902B070BD064EECE7F6
:1058100087204042F8E785204042F5E7D82A010872
:10582000B02A0108E42A0108C42A0108014B8000BB
:10583000C058704730670010F0B54E464546574691
:10584000DE46E0B5C5B099464F9D4E9B06008A46A0
:1058500098460392002D29D080235B009B4610E0E0
:1058600051463000039BB768009404AAB84700284B
:1058700015D1039BA0449C46A44463462D1B03936F
:1058800014D02C005D4501D980246400434649466C
:1058900030007768009404AAB8470028E0D045B0EB
:1058A0003CBC90469946A246AB46F0BD0020F6E7C8
:1058B00010B5016000F098FB10BDC04610B500F0B7
:1058C0006DFD10BDF0B54746CE4680B51D0003689E
:1058D00004009B8C0F00160091B0934265D304AA7C
:1058E00000F014FB002860D005AB9946029308AB8A
:1058F0009846019304AB0093320039002000189BB6
:1059000000F0A6FC002823D1002D26D14A46200015
:10591000089900F005FE002844D142462000049971
:1059200000F066FE00283DD12000049900F0A8FA9E
:10593000002837D143461B68002B01D1002D04D12C
:10594000200000F0B7FB00282CD1200000F080FBE5
:1059500011B00CBC90469946F0BD43462A00002188
:10596000D86800F05DFE00281CD1199B42460193C7
:10597000494600232000009500F0D6F9002811D1F7
:1059800043469D604B461E6843462000196800F060
:10599000B7FA4B4618604346310020001A6800F001
:1059A000BBFDB3E784204042D2E787204042CFE7E7
:1059B00070B58AB0150001AA04000E0000F0A6FA26
:1059C000002815D12000019902AA00F0B9FB002897
:1059D0000CD10C22300007A9FAF73CFE002807D1B1
:1059E000049B2B60059B6B60069BAB600AB070BD8F
:1059F0008C204042FAE7C04670B590B0160004AA69
:105A000004001D0000F082FA00285BD120000499F8
:105A100008AA00F095FB002854D12000089905AA97
:105A200000F0DEFB00284AD10A9B03939D4246D832
:105A30000B9B320029001800039300F0F1FD0028B1
:105A40003DD1149B2000019300962B0008AA05A9C4
:105A500000F06AF9002832D10A9BAD1903939D42E8
:105A600026D808992000059D00F04AFA2900089AD6
:105A70000590200000F050FD2000089905AA00F0D4
:105A80004FFD00281BD12000049908AA00F0B0FDAA
:105A9000002814D12000049900F0F2F900280ED15A
:105AA000089B002B06D1200000F0D2FA10B070BD88
:105AB0000A95D6E7200000F0FDFA0028F3D08420F4
:105AC0004042F3E78C204042F0E7C046F0B54F4635
:105AD000D6464646C0B503688EB005AA0500DF8BE2
:105AE00000F014FA002800D073E02800059906AAF7
:105AF00000F026FB002805D00EB01CBC904699464D
:105B0000A246F0BD0BA800F097FD002861D1079BCD
:105B100020229846099B002106A89946069EFAF77E
:105B2000C3FD2800059906AA00F062FD0028E3D114
:105B30002B68DB8C002B30D00022002492460BE037
:105B40002100280006AA00F053FD0028D4D12B68BC
:105B5000DB8C0134A34222D9059AA242F9D021005C
:105B6000280006AA00F0ECFA0028C5D1069B039392
:105B7000B342E5D10BA800F05FFD0028E0D1079B00
:105B80004345DDD99F4200D91F004A469B1A07931F
:105B9000099B9C460393E244D2E700239A4653466E
:105BA000019343464A46009331003B00280000F031
:105BB00047F80028A0D1002E07D0280000F07AFA7C
:105BC000002802D08420404296E7280000F040FAE6
:105BD00092E78C2040428FE7F0B58FB0170005AAFE
:105BE00004000D001E0000F091F9002825D12000CE
:105BF000059906AA00F0A4FA00281BD10C2228005F
:105C00000BA9FAF727FD002817D1089B3A003100AD
:105C10001800039300F004FD002801D00FB0F0BD80
:105C2000149B3200009320003B0006A900F060F8AE
:105C30000028F3D084204042F0E78C204042EDE77A
:105C4000F0B5C64600B588B0170005AA05000E00DD
:105C5000984600F0C5FA041E04D0200008B004BC29
:105C60009046F0BD079B31009C4628006744039393
:105C7000079700F045F90F9B0700002B21D1069AEA
:105C80000E9B9A4209D29B1A01933900059B286802
:105C90000092FFF7D1FD002821D13200280005999C
:105CA00000F03AFC3100280005AA059700F038FC06
:105CB000041E17D1002ED0D02868C368984704006E
:105CC000CBE7059B010003930F9B0E9A019343467C
:105CD00028680093039BFFF7AFFD0028CFD08424F2
:105CE0006442BAE732003900280000F015FCB4E73E
:105CF000F0B587B00E001500096803AA07001C0064
:105D000000F06EFA00280BD103994B1C08D03868BC
:105D10007368009444680C9AEB18A04707B0F0BD74
:105D200084204042FAE7C046F0B54746CE4616000A
:105D300080B50F0083B011681C00050000F0E0F88A
:105D400073687A689C466444A31A804601000193F4
:105D500028683B680092FFF76FFD00280AD10A9B74
:105D6000286800938368414699460B9A2300C847E8
:105D7000002804D003B00CBC90469946F0BDF168F1
:105D800073688C4663441A002968B868C98B3B68FD
:105D9000091A891A0191286841460092FFF74CFDC3
:105DA0000028E7D13368002BE4D02868C3689847FF
:105DB000E0E7C04670B5082586B00400006800958D
:105DC00000230021466802AAB047002819D16B467B
:105DD0001B7B012B15D16B46282620685A7B835DDF
:105DE0009A420FD0009500230121456804AAA847D4
:105DF000002821D0012200230020E360226106B0A8
:105E000070BD20680823009301210023456804AA7F
:105E1000A84700280AD16B461B7D012B06D16B4693
:105E20005A7D28232168CB5C9A4202D184204042CB
:105E3000E5E700220123DFE76B461B7D012BD9D16B
:105E40006A46517D2268925D8A4215D06A46507B2F
:105E5000002909D100220128CED188429B4100228D
:105E60005B4288425241C7E70028F6D14A1E53429E
:105E70005341511E8A41BFE71A000023BCE7C046C8
:105E8000F0B5C64600B504000669C76800680D0095
:105E9000038C82B0022B31D0023B5A00D218920000
:105EA00008326B019846019331003B000092FFF7E6
:105EB000C3FC00281CD124680135218C02291BD089
:105EC00002394B00591889004246E38C28329C461F
:105ED0005B01083352185B18934209D963465D1B76
